:020000040800F2
:1000000050040020790F000865010008670100080E
:1000100000000000000000000000000000000000E0
:10002000000000000000000000000000690100085E
:1000300000000000000000006B0100086D010008D6
:100040008B0F00088B0F00088B0F00088B0F000828
:100050008B0F00088B0F00088B0F00088B0F000818
:100060008B0F00088B0F00088B0F00088B0F000808
:100070008B0F00088B0F00088B0F00088B0F0008F8
:100080008B0F00088B0F0008000000008B0F00088A
:100090008B0F00088B0F00088B0F00088B0F0008D8
:1000A0008B0F00088B0F00088B0F00086F010008F2
:1000B0008B0F0008000000008B0F000800000000FC
:1000C0000348854601F044F800480047D500000881
:1000D000500400209AB000F0DFF914A000F013FAE9
:1000E00000F020F9174800F095F816480E3000F09F
:1000F00091F87D25144CAD01124800F0EDF806464C
:1001000010480E3000F0E8F8034632460FA101A86F
:1001100001F030F801A800F0F6F92946206800F057
:10012000EDFF0A21484300F015F8E5E770726573AA
:10013000656E6365302070726573656E6365310A44
:100140000000000000000020300000202564202571
:10015000640A000008B50090002801DD401EFAE79F
:1001600008BD00007047FEE77047704770470148C0
:10017000C06970470038014010B5012211460020C7
:1001800000F044F9042000F02FF900F07FF900F0AE
:1001900074F910BD70B504460D4620780022012187
:1001A00000F034F9284600F01FF9012220781146AA
:1001B00000F047F900F022F9044600F067F900F07A
:1001C0005CF9204670BD70B50C46154600780022DB
:1001D000022100F01BF9204600F006F9284600F045
:1001E00003F900F053F900F048F970BD70B5054609
:1001F00001212846FFF7CEFF040402212846FFF71D
:10020000C9FF0002044303212846FFF7C3FF04434C
:10021000E00970BD70B50446FFF7AEFF6078A178C5
:1002200009010143CDB22A4614212046FFF7CBFF36
:100230002A4614212046FFF7C6FFE2781521204602
:10024000FFF7C1FF227916212046FFF7BCFF627934
:1002500017212046FFF7B7FFA27911212046FFF7AB
:10026000B2FF227B1C212046FFF7ADFFE279192166
:100270002046FFF7A8FF227A1A212046FFF7A3FFA6
:10028000627A1A212046FFF79EFFA27A1A212046A1
:10029000FFF799FFE27A1B212046FFF794FF227BAC
:1002A0001C212046FFF78FFFA0891D21020A20464E
:1002B000FFF789FF70BD70B5054610212846FFF78E
:1002C00069FF044613212846FFF764FF400601D565
:1002D000604204B2204670BD70B505460F21284625
:1002E000FFF758FF044613212846FFF753FF000687
:1002F00001D5604204B2204670BD70B506460521A6
:100300003046FFF747FF050406213046FFF742FF5E
:1003100004022C4305213046FFF73CFF204300092F
:1003200070BD000010B58AB0102000F00FFD012153
:10033000480500F0C5FD0121880400F0ABFD944C98
:1003400001220621204600F0EDF901220721204676
:1003500000F0E8F908A800F0B0F9022108AA11712C
:10036000C02008900121D17191710320507108A91A
:10037000204600F06AF901A800F034FA0020069047
:100380000790029003900490059082480190824C5F
:1003900001A9204600F0F8F90121204600F02DFACD
:1003A0000AB010BDF8B5074601242403E00001257A
:1003B0007A4E874203D00EE0641E601C06D0394698
:1003C000754800F084FB0028F6D1F8BD3570F8BD03
:1003D000641E601C06D039466F4800F078FB002888
:1003E000F6D0F8BD3570F8BD10B504460220FFF711
:1003F000D9FF2146684800F05BFB10BD10B5042012
:10040000FFF7D0FF644800F055FB10BDF8B5054676
:100410000E4614460120C003FFF7C4FF0121490323
:100420005D48002C06D00B0300913246294600F0AF
:10043000CDFAF8BD009100233246294600F0C6FAF5
:10044000F8BDF8B505460E4614460120C003FFF777
:10045000A9FF092189025048002C07D001230091EF
:100460005B063246294600F0B1FAF8BD0091002340
:100470003246294600F0AAFAF8BD10B52020FFF751
:1004800091FF2021444800F02AFB10BD10B5402008
:10049000FFF788FF012010BD414841690122520445
:1004A000114341610921C9060A680523DB041A4387
:1004B0000A604A6AFF2311331A434A6281690122A2
:1004C000920311438161FF213648A13181810D21C1
:1004D00001600021416081600168202211430160B8
:1004E00031499005086031490A681202120A0A600F
:1004F0002F49086070472B49CA691206FCD5294963
:1005000020310881704700B5034608E00A2802D16F
:100510000D20FFF7F0FF18785B1CFFF7ECFF187851
:100520000028F3D100BDFEB500240025214E00288F
:1005300004DA2D2131700125404200B26F460A21B4
:1005400000F0F2FD30313955641C24B200B20028AD
:10055000F5DC06E0641E284624B2395D6D1C2DB220
:100560003154002CF6DC002070551248FFF7CBFF09
:10057000FEBD0EB510A003C80291019010A0006846
:10058000009001A8FFF7BFFF6846FFF7BCFF0EBD54
:10059000000400480A033320005400401C000020DF
:1005A000001002400038014000E100E018E400E0E3
:1005B00080E200E0440000201B5B324A00000000A3
:1005C0001B5B660010B50921C906884209D10121CB
:1005D0004C04204600F07FFC0021204600F07BFC0C
:1005E00010BD5849884209D104020121204600F07B
:1005F00072FC0021204600F06EFC10BD524988427A
:1006000009D104020121204600F065FC00212046AA
:1006100000F061FC10BD4D49884209D101210C0553
:10062000204600F058FC0021204600F054FC10BD8C
:1006300047498842FBD101218C05204600F04BFC44
:100640000021204600F047FC10BDF0B50022032534
:10065000012393400C681C409C422AD10C79012C48
:1006600001D0022C12D1876854002E46A640B74311
:1006700087604E79A64084682643866084889C43C0
:10068000848084888B7993401C438480066853005F
:100690002C469C40A64306600E7907689E403E4368
:1006A0000660C668A643C660CC799C40C3681C43FC
:1006B000C460521C102ACBD3F0BD26490160002132
:1006C0000171022242718171C171704708B5012226
:1006D00012040A430092009AC261C1610099C1618B
:1006E000C169C069009008BD02460020128A0A4212
:1006F00000D001207047008A704702460020928A8D
:100700000A4200D001207047808A7047816170479B
:1007100001857047002A01D08161704701857047CB
:100720008182704710B54B07DB0E9A40C9088900DB
:100730000818016A0F249C40A1430162016A114319
:10074000016210BD0004004800080048000C004889
:1007500000140048FFFF000010B5E749884209D1A6
:1007600001214C05204600F0DCFB0021204600F072
:10077000D8FB10BD01218C05204600F0D2FB0021E2
:10078000204600F0CEFB10BD10B5026852085200A2
:1007900002600268D94B1A408C684B6824021443EB
:1007A000234303600F230A681B069A430261026811
:1007B00001231A43026000228260C2600B698A69C9
:1007C0001A43826082680123DB031A438260CA688D
:1007D0000368134303604268C94B1A4049691143D7
:1007E000416010BD0021016041608160C160016114
:1007F0000122D203426181617047002904D001685F
:1008000001221143016070470168490849000160F5
:10081000704701225203002903D00168114301608F
:1008200070470168914301607047002A03D0026855
:100830000A430260704702688A43026070470122DF
:100840005204002903D00168914301607047016898
:1008500011430160704701229204002903D001680E
:1008600011430160704701689143016070470122A4
:10087000D203002903D0C1681143C1607047C16829
:100880009143C160704710B5C3689E4C2340FE245D
:1008900052072140520D11431943C16010BD01227E
:1008A000D204002903D00168114301607047016838
:1008B00091430160704701221204002903D00168AE
:1008C00011430160704701689143016070474268BD
:1008D000920A92028905890D1143416070470122F5
:1008E000D202002903D0416811434160704741683A
:1008F00091434160704701225206002903D04168AC
:100900001143416070474168914341607047012243
:100910001206002903D041681143416070474168C5
:100920009143416070474268FF231B049A430904C6
:1009300011434160704701229202002903D04168AF
:100940001143416070474168914341607047012203
:100950005203002903D04168114341607047416848
:1009600091434160704701229203002903D04168FE
:1009700011434160704741689143416070470122D3
:100980001203002903D04168114341607047416858
:100990009143416070470122D203002903D041688E
:1009A00091434160704741681143416070478069DD
:1009B000FE21000C08407047014600208969012291
:1009C00012041140002900D09011704770B5049DA9
:1009D00044684D4E34408905890D12041143194372
:1009E00029432143416070BD01229205002903D0B3
:1009F00001681143016070470168914301607047CD
:100A00000122D203002903D041691143416170479B
:100A10004169914341617047002905D04169012234
:100A2000D20711434161704741694900490841615A
:100A3000704701221203002903D04169114341612B
:100A4000704741699143416170474269120B12033B
:100A50000905090D11434161704742692B4B1A404A
:100A6000090509091143416170470122D205002996
:100A700003D0016811430160704701689143016030
:100A8000704701229206002903D0016811430160DA
:100A900070470168914301607047006AC0B27047B7
:100AA00008B500900098401800900098006808BDB4
:100AB00081627047406AC0B27047002A03D0026862
:100AC0000A430260704702688A4302607047024628
:100AD000002092690A40002A00D001207047C161BD
:100AE00070470246002092690A40002A00D0012087
:100AF0007047C1617047000000540040FFE0CF0024
:100B0000FF7FFF0701F8FFFF009800FCFFFF00F0E8
:100B1000F64801680122114301604168F44A11401E
:100B200041600168F34A11400160016801229204AA
:100B30009143016041683F22120491434160C16AC0
:100B400009090901C162016BFF225432914301631B
:100B5000416B490849004163002181607047E349C6
:100B600000228A7088707047034600205909DF4AC6
:100B700000290CD001290CD002290CD0516BDA06C7
:100B8000D20E012393400B4200D001207047116820
:100B9000F5E7116AF3E7516AF1E718B50020009014
:100BA000052424021120FFF7DFFF0099491C009162
:100BB0000099A14201D00028F4D01120FFF7D4FF02
:100BC000002801D0012018BD002018BDC74A1168B7
:100BD000F8239943C000084310607047C3490028B8
:100BE00004D0086801221043086070470868400874
:100BF000400008607047BD4A516BF8239943C0001C
:100C0000084350637047B949002804D0486B01225B
:100C1000104348637047486B400840004863704782
:100C2000B2490422002803D0486B904348637047C0
:100C3000486B104348637047AC490A6A5208520037
:100C40000A620A6A04239A430A620A6A02430A622F
:100C50007047A6490A6A18239A430A620A6A02433D
:100C60000A627047A149002804D0486A0122104353
:100C700048627047486A400840004862704710B5B3
:100C80009A4A53683D242404A3435360536808439D
:100C90000343536010BD012294491206002803D07B
:100CA0000868104308607047086890430860704700
:100CB0008E4AD16A090909010143D16270470122B4
:100CC0008A49D204002803D008681043086070479E
:100CD00008689043086070478449C8717047834A28
:100CE0005168890889000143516070477F48406816
:100CF0000C21084070477D4A5168F0239943014315
:100D000051607047794A516807231B029943014398
:100D10005160704775494A6801239B039A434A60B2
:100D20004A6883B21A434A600A6B8B159A430A6376
:100D30000A6B000C02430A6370476C490A6B40233C
:100D40009A430A630A6B02430A63704767490A6B56
:100D500010239A430A630A6B02430A63704763498C
:100D60000A6B920892000A630A6B02430A63704797
:100D7000F8B504465D4E70680C2108405E4D0028B1
:100D80001CD004281CD008281CD025607068F021D5
:100D900008400009594F3A5C20680146D140616023
:100DA000726807231B021A40120ABA5CD140A16084
:100DB000326BD20520D4524AE26025E02560E5E797
:100DC0002560E3E771680F2080040140706801220C
:100DD000120410408F0CBF1C002809D0F06A0107D4
:100DE000090F491C284600F089F978432060CDE7B7
:100DF000444847432760C9E77268520402D44A084E
:100E0000E26001E08A08E260326B3F4B520603D495
:100E10003D4A1232226100E02361326BD20601D4D6
:100E2000656100E06061326B92070FD0316B89071A
:100E3000890F01290CD0306B8007800F022809D060
:100E4000306BC043800700D1A561F8BDA161F8BD3A
:100E5000A061F8BDA361F8BD24490A6A02430A6291
:100E600070472249284A002803D0086A10430862C4
:100E70007047086A90430862704701221B491204B8
:100E8000002803D0086A104308627047086A90433C
:100E900008627047154A002903D051690143516126
:100EA00070475169814351617047104A002903D04E
:100EB00091690143916170479169814391617047E4
:100EC0000A4A002903D0D1690143D1617047D16931
:100ED0008143D1617047054A002903D0916A0143DB
:100EE00091627047916A814391627047001002409D
:100EF0000CB8FFF8FFFFF6FE00127A001D0000207C
:100F0000809FD50000093D0000800000194A00299B
:100F100003D0D1680143D1607047D1688143D1606B
:100F20007047144A002903D01169014311617047C9
:100F300011698143116170470E4A002903D0517A2B
:100F4000014351727047517A814351727047094889
:100F5000416A012212061143416270470146002096
:100F6000044A92680A4200D0012070470149887201
:100F700070470000001002400448804704480047C2
:100F8000FEE7FEE7FEE7FEE7FEE7FEE729100008C2
:100F9000C10000081CB5002301930093504801686C
:100FA0000122120411430160510005242402026849
:100FB0000A400092019A521C0192009A002A02D122
:100FC000019AA242F3D10168890302D5012100915F
:100FD00000E000930099012925D1424911220A60BD
:100FE000416841604168416041683F221204914379
:100FF00041604168112212041143416001680122DD
:1010000012061143016001688901FCD54168890815
:10101000890041604168022211434160416809072B
:10102000890F0229FAD11CBD2D4801680122114304
:10103000016041682C4A1140416001682B4A11400F
:1010400001600168012292049143016041683F22DE
:10105000120491434160C16A09090901C162016B2F
:10106000FF22543291430163416B490849004163B7
:10107000002181608EE770B5194E71680C20014027
:101080001B481C4C00290ED004290ED008290ED074
:101090002060706817490006000F091D085C216870
:1010A000C140216070BD2060F3E72060F1E7716806
:1010B0000F2292041140726801231B041A408D0C08
:1010C000AD1C002A08D0F16A0907090F491C00F07D
:1010D00015F868432060DCE7074845432560D8E7FA
:1010E00000100240002002400CB8FFF8FFFFF6FE9F
:1010F00000127A003000002000093D0030B50B4698
:10110000014600202022012409E00D46D5409D42E1
:1011100005D31D469540491B254695404019154667
:10112000521E002DF1DC30BD70B50024254600288C
:1011300001DA01244042002901DA01254942FFF782
:10114000DDFFAC4200D04042002C00D0494270BDCF
:10115000064C0125064E05E0E36807CC2B430C3C0A
:1011600098471034B442F7D3FEF7AEFF18130008C7
:10117000381300080FB410B504A9074B02AA03984E
:1011800000F01CF8044602A9002000F0BFF8204639
:1011900010BC08BC04B018470D13000802E008C8D2
:1011A000121F08C1002AFAD170477047002001E0E1
:1011B00001C1121F002AFBD170470000FFB58DB09E
:1011C0000446002506E025280AD0109A0F9990477A
:1011D000641C6D1C20780028F5D1284611B0F0BDA4
:1011E00000270121484A009700E00743641C237848
:1011F0000846203B98401042F7D120782E2817D17E
:10120000042007436078641C2A280CD10E98641CC3
:1012100002C800910E900BE000990A225143303928
:101220004018641C00902078014630390929F3D910
:1012300020780028D1D0642808D0692806D07528E5
:101240001ED0109A0F9990476D1C5BE00A200E99F2
:10125000019001C90E91002802DA40422D2102E0DE
:10126000390504D52B216A461172012103E0F907E3
:1012700004D02021F7E70BAE0B910DE00021FAE737
:101280000A200E99019001C90E91F7E70199FFF725
:1012900035FF3031761E31700028F7D103A8801B4E
:1012A00020300190780701D5009801E001200090DE
:1012B0000199884201DD401A00E0002000270090DB
:1012C00006E002A8109AC05D0F9990476D1C7F1C24
:1012D0000B988742F5DB04E0109A30200F99904775
:1012E0006D1C0099481E00900029F5DC05E030785F
:1012F000109A761C0F9990476D1C0199481E019019
:101300000029F4DC641C65E7092801000A68531C05
:101310000B601070704700003813000800000020B8
:10132000440000009C1100087C13000844000020C9
:101330000C040000AC110008180B080A320A0A005D
:101340000801000000001A0B080A320A0A0008010E
:10135000000000000000000000010203040102037D
:101360000406070809000000006CDC020000000011
:0C13700000000000010203040607080949
:04000005080000C12E
:00000001FF
